{
  "_format": "hh-sol-artifact-1",
  "contractName": "BoxV4",
  "sourceName": "contracts/BoxV4.sol",
  "abi": [
    {
      "anonymous": false,
      "inputs": [
        {
          "indexed": false,
          "internalType": "uint256",
          "name": "value",
          "type": "uint256"
        }
      ],
      "name": "ValueChanged",
      "type": "event"
    },
    {
      "inputs": [],
      "name": "multiply",
      "outputs": [],
      "stateMutability": "nonpayable",
      "type": "function"
    },
    {
      "inputs": [],
      "name": "power",
      "outputs": [],
      "stateMutability": "nonpayable",
      "type": "function"
    },
    {
      "inputs": [],
      "name": "retrieve",
      "outputs": [
        {
          "internalType": "uint256",
          "name": "",
          "type": "uint256"
        }
      ],
      "stateMutability": "view",
      "type": "function"
    },
    {
      "inputs": [
        {
          "internalType": "uint256",
          "name": "value",
          "type": "uint256"
        }
      ],
      "name": "store",
      "outputs": [],
      "stateMutability": "nonpayable",
      "type": "function"
    }
  ],
  "bytecode": "0x608060405234801561001057600080fd5b506102c3806100206000396000f3fe608060405234801561001057600080fd5b506004361061004c5760003560e01c80632e64cec1146100515780634a4d59fa1461006f5780636057361d14610079578063f3593cd014610095575b600080fd5b61005961009f565b60405161006691906101a3565b60405180910390f35b6100776100a8565b005b610093600480360381019061008e91906101ef565b6100f9565b005b61009d61013a565b005b60008054905090565b6000546000546100b8919061024b565b6000819055507f93fe6d397c74fdf1402a8b72e47b68512f0510d7b98a4bc4cbdf6ac7108b3c596000546040516100ef91906101a3565b60405180910390a1565b806000819055507f93fe6d397c74fdf1402a8b72e47b68512f0510d7b98a4bc4cbdf6ac7108b3c598160405161012f91906101a3565b60405180910390a150565b6002600054610149919061024b565b6000819055507f93fe6d397c74fdf1402a8b72e47b68512f0510d7b98a4bc4cbdf6ac7108b3c5960005460405161018091906101a3565b60405180910390a1565b6000819050919050565b61019d8161018a565b82525050565b60006020820190506101b86000830184610194565b92915050565b600080fd5b6101cc8161018a565b81146101d757600080fd5b50565b6000813590506101e9816101c3565b92915050565b600060208284031215610205576102046101be565b5b6000610213848285016101da565b91505092915050565b7f4e487b7100000000000000000000000000000000000000000000000000000000600052601160045260246000fd5b60006102568261018a565b91506102618361018a565b925082820261026f8161018a565b915082820484148315176102865761028561021c565b5b509291505056fea2646970667358221220c9aa441d7a55c20bba2caf4ec857b79cc753ace757f71ee40ee1aecff6b0b24264736f6c63430008140033",
  "linkReferences": {},
  "deployedLinkReferences": {}
}